:060000000A128A110C280F
:10000800FE00030EF8000A08F9000A128A111C28DB
:100018000A128A110F28F001F101F201F301F4012B
:1000280083120313A701A80183010A128A11DB288E
:10003800831203130C1F212822282A281E08F600E1
:10004800F7017608F0007708F1000C130B1C2D2837
:100058002E283E2886183128322837280130F60005
:100068007608F3073D2806183A283B283D28013032
:10007800F3020B108C1D4128422861280A128A11AC
:1000880025210A128A11F2007208031D4C284D28F6
:10009800532870080A128A1135210A128A1172032C
:1000A800031D572858285E2873080A128A1135211B
:1000B8000A128A11831203138C1179088A00780EA8
:1000C8008300FE0E7E0E0900003083120313A00089
:1000D800A1000A128A11A2200A128A118316031794
:1000E800880108148901FF308316031386008801EC
:1000F800FF30850087158312031386018801831654
:1001080003138113FF30960070308F040F140B1007
:100118008B158B170B17831203138C11831603137C
:100128008C15851683120313A001A101A2012430A6
:100138000A128A1107210A128A110800831203136E
:100148002108803AFF0080307F02031DAD280E3061
:1001580020020318B028B128BD28831203132008F1
:10016800A200A20DA20D1F082206C33922069F0075
:10017800C128C330831203139F05831603131F126C
:100188009F12831203131F083F3980389F0083167C
:1001980003139F13831203131F140C130B178316D7
:1001A80003130C178B17831203139F1408000A12EA
:1001B8008A1168200A128A117308831203138800AF
:1001C8009F18E728E828F528033083120313A500B1
:1001D8009730A400A40BEE28A50BEE288312031376
:1001E8009F14033083120313A6008A30A5005530EC
:1001F800A400A40BFD28A50BFD28A60BFD28E028CC
:100208000A128A110C2883120313A30083160313FE
:10021800871283120313231D12291329192922086F
:1002280083160313940087151F29200822048316B8
:1002380003139400871183120313230821049400E5
:1002480008000A128A112E210A128A118312031336
:100258001308080083160313141C332934292E2984
:0E0268000800F50075088312031393000800C8
:08400000FF3FFF3FFF3FFF3FC0
:04400E00D420FF3F7C
:00000001FF
