:060000000A128A110C280F
:10000800FE00030EF1000A08F2000A128A11B12854
:100018000A128A110F28F701F80183120313A001AD
:10002800A101A201A301A40183010A128A11852852
:100038007408803AFF0080307F02031D25280E30A7
:10004800730203182828292835287308F500F50DA8
:10005800F50D831203131F087506C33975069F0033
:100068003928C330831203139F05831603131F1205
:100078009F12831203131F083F3980389F0083168D
:1000880003139F13831203131F140C130B178316E8
:1000980003130C178B17831203139F14080083167E
:1000A8000317880189010030F300F4000A128A114D
:1000B8001C200A128A1183160317081483160313C7
:1000C80086018801FF3085008312031386018801A9
:1000D80083160313871570308F040F148B170B17B3
:1000E800831203138C11831603138C158516F301E1
:1000F800F401F50124300A128A11D6200A128A1155
:1001080008000A128A1153200A128A1177088312EA
:10011800031386009F18912892289F280330831282
:100128000313A6009730A500A50B9828A60B9828BE
:10013800831203139F14033083120313A7008A301A
:10014800A6005530A500A50BA728A60BA728A70B26
:10015800A7288A280A128A110C28831203130C1F55
:10016800B628B728BA281E08F7000C138C1DBD281E
:10017800BE28CF280A128A11EC200A128A1183128B
:100188000313880006080A128A11FC200A128A1131
:10019800831203138C1172088A00710E8300FE0EFD
:1001A8007E0E0900F600831603138712761DDD28DC
:1001B800DE28E228750894008715E6287308750478
:1001C80094008711760874048312031394000800BE
:1001D8000A128A11F5200A128A11831203131308CE
:1001E800080083160313141CFA28FB28F5280800B6
:0C01F800F000700883120313930008004D
:08400000FF3FFF3FFF3FFF3FC0
:04400E00D420FF3F7C
:00000001FF
