:100000000A128A11EB2FFF1B0D2883137F18831709
:100010000008840A0319FF0A080000308A00040857
:10002000840A82070034013400340A340034643412
:100030000034E83403341034273443344F344E341E
:100040005434323400344134443443343134003491
:10005000413444344334323400342534643400347D
:1007DE00F00070088312031388000800F000700800
:1007EE00831203139300080083160313141C002CAA
:1007FE00012CFB2B080064008001840A04060319F7
:10080E0000340406032C0A128A11FB230A128A11E1
:10081E00831203131308080000300A128A114E24A3
:10082E000A128A1101300A128A114E240A128A11F2
:10083E000800F300831603138712731D272C282C30
:10084E002C2C720894008715302C700872049400BA
:10085E008711730871048312031394000800F300C8
:10086E007308F20083120313091472080A128A1114
:10087E00EF230A128A118312031389141A30F1001E
:10088E00F10B472C00008312031389100800F300AC
:10089E0083120313091073080A128A11EF230A1226
:1008AE008A118312031389140B30F2006230F100A7
:1008BE00F10B5F2CF20B5F2C0000831203138910D7
:1008CE000800F5007503031D6D2C6E2C782C740832
:1008DE007F3EF60076080A128A114E240A128A11F9
:1008EE00872C02307506031D7D2C7E2C872C7408F8
:1008FE00BF3EF60076080A128A114E240A128A1199
:10090E0008008316031788018901831603138710C5
:10091E000711871187120C30890086018801850125
:10092E00831203138601880189010715871470301D
:10093E00831603138F040F14F001F101F20120301E
:10094E000A128A1120240A128A11080078087904E2
:10095E000319B22CB32CE22CFD01FD0AC12C01307F
:10096E000310F80DF90DFF3E031DB72C0130FC00EE
:10097E007C08FD07F91FC42CC52CB62C79087B0208
:10098E00031DCB2C78087A02031CCE2CCF2CD52C31
:10099E007808FA027908031CFB03FB0201300310EE
:1009AE00F90CF80CFF3E031DD62C0130FD02031D81
:1009BE00E12CE22CC52C7B08F9007A08F80008001F
:1009CE00F901FA010C2D79087407F7007508F60085
:1009DE000318F60AF91FF42CF6037608F8007808C7
:1009EE0083120313FF00770884000A128A11032072
:1009FE000A128A110A128A1136240A128A11013039
:100A0E00F9070318FA0A0030FA0779087407F70095
:100A1E007508F6000318F60AF91F162DF603760868
:100A2E00F800780883120313FF00770884000A1277
:100A3E008A1103200A128A11003A031D272D282D30
:100A4E00EA2C0800F501F601700871040319302D27
:100A5E00312D682DF701F70A3F2D01300310F00DEF
:100A6E00F10DFF3E031D352D0130F4007408F7071C
:100A7E00F11F422D432D342D01300310F50DF60DCF
:100A8E00FF3E031D442D71087302031D502D700887
:100A9E007202031C532D542D5B2D7008F202710847
:100AAE00031CF303F302751401300310F10CF00C68
:100ABE00FF3E031D5C2D0130F702031D672D682DCF
:100ACE00432D7608F1007508F000080000300A1278
:100ADE008A11EF230A128A113430F500F130F40036
:100AEE00F40B772DF50B772D7C2D30300A128A11F1
:100AFE004E240A128A110D30F500FB30F400F40B6F
:100B0E00862DF50B862D8B2D30300A128A114E2430
:100B1E000A128A111D30F5009130F400F40B952D58
:100B2E00F50B952D30300A128A114E240A128A11B5
:100B3E003C300A128A114E240A128A110C300A1203
:100B4E008A114E240A128A1101300A128A114E2479
:100B5E000A128A1106300A128A114E240A128A11BA
:100B6E00080083120313DA005030D5007D2E253095
:100B7E005B060319C32DC42DCE2D5A0884005B08C5
:100B8E00831380000130D2005208DA077D2ED60181
:100B9E000130CF07FF304F0784000A128A110D2053
:100BAE000A128A11DB00D200D3015308003A03194E
:100BBE00E12D7D2E5208003A03198D2E643A031949
:100BCE00EC2D0D3A0319EC2D7D2E55088400831360
:100BDE000008D800840A0008D9000230D20052085A
:100BEE00D507D91FFB2DFC2D052E0330D200520840
:100BFE00D604D809D909D80A0319D90ADB01DB0AA8
:100C0E005B08D2005207013E84000A128A110D20A1
:100C1E000A128A11D3000A128A110D200A128A11A1
:100C2E00D40054085902031D1E2E530858020318EF
:100C3E00212E222E232E2D2E0130D2005208DB071C
:100C4E0005305B06031D2C2E2D2E072E560803395C
:100C5E000319322E332E3C2E5A0884002D30831366
:100C6E0080000130D2005208DA075B08D700742EDC
:100C7E000A30F8000030F9005708D2005207013E42
:100C8E0084000A128A110D200A128A11F0000A122B
:100C9E008A110D200A128A11F1005908F300580822
:100CAE00F2000A128A1129250A128A117108FB0014
:100CBE007008FA000A128A11AD240A128A117808F5
:100CCE00303E83120313DB005A0884005B08831343
:100CDE0080000130D2005208DA07FF30D2005208ED
:100CEE00D707570A031D7C2E7D2E3F2E0130CF07CE
:100CFE00FF304F0784000A128A110D200A128A1142
:100D0E00DB005B08031D8C2E8D2EBE2D5A08840031
:100D1E008313800108000A128A1188240A128A118C
:100D2E000A128A116D250A128A110A128A111324C7
:100D3E000A128A118312031307110D308312031343
:100D4E00DD00FB30DC00DC0BAA2EDD0BAA2E013001
:100D5E000A128A11F5230A128A110A128A110A241A
:100D6E000A128A1183120313DF0003308312031356
:100D7E00DD009730DC00DC0BC22EDD0BC22E8312A1
:100D8E00031307151A3083120313DD00F730DC004E
:100D9E00DC0BCF2EDD0BCF2ED42E83120313871038
:100DAE000D3083120313DD00FB30DC00DC0BDD2E77
:100DBE00DD0BDD2E01300A128A11F5230A128A117B
:100DCE000A128A110A240A128A1183120313E000EE
:100DDE000D3083120313DD00FB30DC00DC0BF52E2F
:100DEE00DD0BF52E8312031387141A3083120313AF
:100DFE00DD00F730DC00DC0B022FDD0B022F072F9E
:100E0E008312031387100D3083120313DD00FB30A2
:100E1E00DC00DC0B102FDD0B102F00300A128A11B4
:100E2E00F5230A128A110A128A110A240A128A1149
:100E3E0083120313E1000D3083120313DD00FB3028
:100E4E00DC00DC0B282FDD0B282F831203138714F5
:100E5E001A3083120313DD00F730DC00DC0B352F64
:100E6E00DD0B352F3A2F1B3083120313CF005F0893
:100E7E00DC00DD015C08D0005D08D10040300A12B4
:100E8E008A11B8250A128A111B3083120313CF0060
:100E9E006008DC00DD015C08D0005D08D100313057
:100EAE000A128A11B8250A128A111B3083120313F3
:100EBE00CF006108DC00DD015C08D0005D08D100C8
:100ECE0022300A128A11B8250A128A110A128A11C0
:100EDE0013240A128A11F401F40A01300A128A113B
:100EEE0068240A128A111130F4008030F5000A12BB
:100EFE008A11E7240A128A110730F40001300A120F
:100F0E008A1168240A128A111630F4008030F50016
:100F1E000A128A11E7240A128A110C30F4000130E9
:100F2E000A128A1168240A128A110B30F4008030DA
:100F3E00F5000A128A11E7240A128A11F401F40A42
:100F4E0002300A128A1168240A128A114030F40003
:100F5E000030F5000A128A11E7240A128A110730AE
:100F6E00F40002300A128A1168240A128A113130F2
:100F7E00F4000030F5000A128A11E7240A128A11D1
:100F8E000C30F40002300A128A1168240A128A11F7
:100F9E002230F4000030F5000A128A11E7240A12FA
:100FAE008A11023083120313DE000430DD00B930E3
:100FBE00DC00DC0BE02FDD0BE02FDE0BE02FE72F4C
:100FCE00A12E0A128A1100288313203084004F307C
:100FDE000A128A1102240A128A11A0308400AF303C
:100FEE000A128A1102240A128A1183010A128A1124
:020FFE00922E31
:08400000FF3FFF3FFF3FFF3FC0
:04400E00D420FF3F7C
:00000001FF
